{
  "_format": "hh-sol-artifact-1",
  "contractName": "KingOfTheFools",
  "sourceName": "contracts/KingOfTheFools.sol",
  "abi": [
    {
      "inputs": [
        {
          "internalType": "address",
          "name": "_usdc",
          "type": "address"
        }
      ],
      "stateMutability": "nonpayable",
      "type": "constructor"
    },
    {
      "anonymous": false,
      "inputs": [
        {
          "indexed": false,
          "internalType": "address",
          "name": "account",
          "type": "address"
        },
        {
          "indexed": false,
          "internalType": "bool",
          "name": "isUSDC",
          "type": "bool"
        },
        {
          "indexed": false,
          "internalType": "uint256",
          "name": "amount",
          "type": "uint256"
        },
        {
          "indexed": false,
          "internalType": "bool",
          "name": "isFool",
          "type": "bool"
        }
      ],
      "name": "Deposit",
      "type": "event"
    },
    {
      "inputs": [],
      "name": "USDC",
      "outputs": [
        {
          "internalType": "contract IERC20",
          "name": "",
          "type": "address"
        }
      ],
      "stateMutability": "view",
      "type": "function"
    },
    {
      "inputs": [
        {
          "internalType": "address",
          "name": "",
          "type": "address"
        }
      ],
      "name": "balances",
      "outputs": [
        {
          "internalType": "uint256",
          "name": "ethAmount",
          "type": "uint256"
        },
        {
          "internalType": "uint256",
          "name": "USDCAmount",
          "type": "uint256"
        }
      ],
      "stateMutability": "view",
      "type": "function"
    },
    {
      "inputs": [],
      "name": "depositEth",
      "outputs": [],
      "stateMutability": "payable",
      "type": "function"
    },
    {
      "inputs": [
        {
          "internalType": "uint256",
          "name": "_amount",
          "type": "uint256"
        }
      ],
      "name": "depositUSDC",
      "outputs": [],
      "stateMutability": "nonpayable",
      "type": "function"
    },
    {
      "inputs": [],
      "name": "isPrevUSDC",
      "outputs": [
        {
          "internalType": "bool",
          "name": "",
          "type": "bool"
        }
      ],
      "stateMutability": "view",
      "type": "function"
    },
    {
      "inputs": [],
      "name": "prevAddress",
      "outputs": [
        {
          "internalType": "address",
          "name": "",
          "type": "address"
        }
      ],
      "stateMutability": "view",
      "type": "function"
    },
    {
      "inputs": [],
      "name": "prevAmount",
      "outputs": [
        {
          "internalType": "uint256",
          "name": "",
          "type": "uint256"
        }
      ],
      "stateMutability": "view",
      "type": "function"
    }
  ],
  "bytecode": "0x60806040523480156200001157600080fd5b506040516200113a3803806200113a833981810160405281019062000037919062000133565b600a60048190555080600560006101000a81548173ffffffffffffffffffffffffffffffffffffffff021916908373ffffffffffffffffffffffffffffffffffffffff1602179055506000600160006101000a81548173ffffffffffffffffffffffffffffffffffffffff021916908373ffffffffffffffffffffffffffffffffffffffff1602179055505062000165565b600080fd5b600073ffffffffffffffffffffffffffffffffffffffff82169050919050565b6000620000fb82620000ce565b9050919050565b6200010d81620000ee565b81146200011957600080fd5b50565b6000815190506200012d8162000102565b92915050565b6000602082840312156200014c576200014b620000c9565b5b60006200015c848285016200011c565b91505092915050565b610fc580620001756000396000f3fe6080604052600436106100705760003560e01c806389a302711161004e57806389a30271146100e8578063ccbf459a14610113578063f688bcfb1461013e578063fceb74ae1461016757610070565b806327e235e314610075578063439370b1146100b35780636f493ed0146100bd575b600080fd5b34801561008157600080fd5b5061009c60048036038101906100979190610a38565b610192565b6040516100aa929190610a7e565b60405180910390f35b6100bb6101b6565b005b3480156100c957600080fd5b506100d2610350565b6040516100df9190610ac2565b60405180910390f35b3480156100f457600080fd5b506100fd610363565b60405161010a9190610b3c565b60405180910390f35b34801561011f57600080fd5b50610128610389565b6040516101359190610b57565b60405180910390f35b34801561014a57600080fd5b5061016560048036038101906101609190610b9e565b61038f565b005b34801561017357600080fd5b5061017c6107f3565b6040516101899190610bda565b60405180910390f35b60006020528060005260406000206000915090508060000154908060010154905082565b60006101c3600034610819565b9050801561023957600160009054906101000a900473ffffffffffffffffffffffffffffffffffffffff1673ffffffffffffffffffffffffffffffffffffffff166108fc349081150290604051600060405180830381858888f19350505050158015610233573d6000803e3d6000fd5b50610292565b346000803373ffffffffffffffffffffffffffffffffffffffff1673ffffffffffffffffffffffffffffffffffffffff168152602001908152602001600020600001600082825461028a9190610c24565b925050819055505b6001600660008282546102a59190610c24565b9250508190555033600160006101000a81548173ffffffffffffffffffffffffffffffffffffffff021916908373ffffffffffffffffffffffffffffffffffffffff1602179055506000600360006101000a81548160ff021916908315150217905550346002819055507fb0abffa3787158a32e3d194630c5c3e6c48fdb9cf0665cb963675c857bab7e3133600034846040516103459493929190610c58565b60405180910390a150565b600360009054906101000a900460ff1681565b600560009054906101000a900473ffffffffffffffffffffffffffffffffffffffff1681565b60025481565b6000600560009054906101000a900473ffffffffffffffffffffffffffffffffffffffff1673ffffffffffffffffffffffffffffffffffffffff166370a08231336040518263ffffffff1660e01b81526004016103ec9190610bda565b602060405180830381865afa158015610409573d6000803e3d6000fd5b505050506040513d601f19601f8201168201806040525081019061042d9190610cb2565b905081811015610472576040517f08c379a000000000000000000000000000000000000000000000000000000000815260040161046990610d3c565b60405180910390fd5b6000600560009054906101000a900473ffffffffffffffffffffffffffffffffffffffff1673ffffffffffffffffffffffffffffffffffffffff1663dd62ed3e33306040518363ffffffff1660e01b81526004016104d1929190610d5c565b602060405180830381865afa1580156104ee573d6000803e3d6000fd5b505050506040513d601f19601f820116820180604052508101906105129190610cb2565b905082811015610557576040517f08c379a000000000000000000000000000000000000000000000000000000000815260040161054e90610dd1565b60405180910390fd5b6000610564600185610819565b9050801561063657600560009054906101000a900473ffffffffffffffffffffffffffffffffffffffff1673ffffffffffffffffffffffffffffffffffffffff166323b872dd33600160009054906101000a900473ffffffffffffffffffffffffffffffffffffffff16876040518463ffffffff1660e01b81526004016105ed93929190610df1565b6020604051808303816000875af115801561060c573d6000803e3d6000fd5b505050506040513d601f19601f820116820180604052508101906106309190610e54565b50610732565b600560009054906101000a900473ffffffffffffffffffffffffffffffffffffffff1673ffffffffffffffffffffffffffffffffffffffff166323b872dd3330876040518463ffffffff1660e01b815260040161069593929190610df1565b6020604051808303816000875af11580156106b4573d6000803e3d6000fd5b505050506040513d601f19601f820116820180604052508101906106d89190610e54565b50836000803373ffffffffffffffffffffffffffffffffffffffff1673ffffffffffffffffffffffffffffffffffffffff168152602001908152602001600020600101600082825461072a9190610c24565b925050819055505b6001600660008282546107459190610c24565b9250508190555033600160006101000a81548173ffffffffffffffffffffffffffffffffffffffff021916908373ffffffffffffffffffffffffffffffffffffffff1602179055506001600360006101000a81548160ff021916908315150217905550836002819055507fb0abffa3787158a32e3d194630c5c3e6c48fdb9cf0665cb963675c857bab7e3133600086846040516107e59493929190610c58565b60405180910390a150505050565b600160009054906101000a900473ffffffffffffffffffffffffffffffffffffffff1681565b600080600654148061087a5750600073ffffffffffffffffffffffffffffffffffffffff16600160009054906101000a900473ffffffffffffffffffffffffffffffffffffffff1673ffffffffffffffffffffffffffffffffffffffff1614155b6108b9576040517f08c379a00000000000000000000000000000000000000000000000000000000081526004016108b090610ecd565b60405180910390fd5b6000831580156108d65750600360009054906101000a900460ff16155b806108f657508380156108f55750600360009054906101000a900460ff165b5b1561091d57600a600f60025461090c9190610eed565b6109169190610f5e565b905061098d565b831580156109375750600360009054906101000a900460ff165b1561096657600a600f61094b6002546109a7565b6109559190610eed565b61095f9190610f5e565b905061098c565b600a600f6109756002546109be565b61097f9190610eed565b6109899190610f5e565b90505b5b80831061099b57600061099e565b60015b91505092915050565b6000816004546109b79190610f5e565b9050919050565b6000816004546109ce9190610eed565b9050919050565b600080fd5b600073ffffffffffffffffffffffffffffffffffffffff82169050919050565b6000610a05826109da565b9050919050565b610a15816109fa565b8114610a2057600080fd5b50565b600081359050610a3281610a0c565b92915050565b600060208284031215610a4e57610a4d6109d5565b5b6000610a5c84828501610a23565b91505092915050565b6000819050919050565b610a7881610a65565b82525050565b6000604082019050610a936000830185610a6f565b610aa06020830184610a6f565b9392505050565b60008115159050919050565b610abc81610aa7565b82525050565b6000602082019050610ad76000830184610ab3565b92915050565b6000819050919050565b6000610b02610afd610af8846109da565b610add565b6109da565b9050919050565b6000610b1482610ae7565b9050919050565b6000610b2682610b09565b9050919050565b610b3681610b1b565b82525050565b6000602082019050610b516000830184610b2d565b92915050565b6000602082019050610b6c6000830184610a6f565b92915050565b610b7b81610a65565b8114610b8657600080fd5b50565b600081359050610b9881610b72565b92915050565b600060208284031215610bb457610bb36109d5565b5b6000610bc284828501610b89565b91505092915050565b610bd4816109fa565b82525050565b6000602082019050610bef6000830184610bcb565b92915050565b7f4e487b7100000000000000000000000000000000000000000000000000000000600052601160045260246000fd5b6000610c2f82610a65565b9150610c3a83610a65565b9250828201905080821115610c5257610c51610bf5565b5b92915050565b6000608082019050610c6d6000830187610bcb565b610c7a6020830186610ab3565b610c876040830185610a6f565b610c946060830184610ab3565b95945050505050565b600081519050610cac81610b72565b92915050565b600060208284031215610cc857610cc76109d5565b5b6000610cd684828501610c9d565b91505092915050565b600082825260208201905092915050565b7f6e6f7420656e6f7567682062616c616e63650000000000000000000000000000600082015250565b6000610d26601283610cdf565b9150610d3182610cf0565b602082019050919050565b60006020820190508181036000830152610d5581610d19565b9050919050565b6000604082019050610d716000830185610bcb565b610d7e6020830184610bcb565b9392505050565b7f6e6f7420656e6f75676820616c6c6f77616e6365000000000000000000000000600082015250565b6000610dbb601483610cdf565b9150610dc682610d85565b602082019050919050565b60006020820190508181036000830152610dea81610dae565b9050919050565b6000606082019050610e066000830186610bcb565b610e136020830185610bcb565b610e206040830184610a6f565b949350505050565b610e3181610aa7565b8114610e3c57600080fd5b50565b600081519050610e4e81610e28565b92915050565b600060208284031215610e6a57610e696109d5565b5b6000610e7884828501610e3f565b91505092915050565b7f7072657620616464726573732069732061646472657373283029000000000000600082015250565b6000610eb7601a83610cdf565b9150610ec282610e81565b602082019050919050565b60006020820190508181036000830152610ee681610eaa565b9050919050565b6000610ef882610a65565b9150610f0383610a65565b9250828202610f1181610a65565b91508282048414831517610f2857610f27610bf5565b5b5092915050565b7f4e487b7100000000000000000000000000000000000000000000000000000000600052601260045260246000fd5b6000610f6982610a65565b9150610f7483610a65565b925082610f8457610f83610f2f565b5b82820490509291505056fea26469706673582212205e207668cbe3f0cd89e3c9ab3d9a292aef4bd23e55d613ea9b271925d67fcd7864736f6c63430008110033",
  "linkReferences": {},
  "deployedLinkReferences": {}
}